{
  "contractName": "DogsUpdated",
  "abi": [
    {
      "inputs": [],
      "stateMutability": "nonpayable",
      "type": "constructor"
    },
    {
      "inputs": [],
      "name": "_initialized",
      "outputs": [
        {
          "internalType": "bool",
          "name": "",
          "type": "bool"
        }
      ],
      "stateMutability": "view",
      "type": "function",
      "constant": true
    },
    {
      "inputs": [],
      "name": "owner",
      "outputs": [
        {
          "internalType": "address",
          "name": "",
          "type": "address"
        }
      ],
      "stateMutability": "view",
      "type": "function",
      "constant": true
    },
    {
      "inputs": [
        {
          "internalType": "address",
          "name": "_owner",
          "type": "address"
        }
      ],
      "name": "initialize",
      "outputs": [],
      "stateMutability": "nonpayable",
      "type": "function"
    },
    {
      "inputs": [],
      "name": "getNumberOfDogs",
      "outputs": [
        {
          "internalType": "uint256",
          "name": "",
          "type": "uint256"
        }
      ],
      "stateMutability": "view",
      "type": "function",
      "constant": true
    },
    {
      "inputs": [
        {
          "internalType": "uint256",
          "name": "toSet",
          "type": "uint256"
        }
      ],
      "name": "setNumberOfDogs",
      "outputs": [],
      "stateMutability": "nonpayable",
      "type": "function"
    }
  ],
  "bytecode": "0x608060405234801561001057600080fd5b506100203361002560201b60201c565b61009e565b600560149054906101000a900460ff161561003f57600080fd5b80600560006101000a81548173ffffffffffffffffffffffffffffffffffffffff021916908373ffffffffffffffffffffffffffffffffffffffff1602179055506001600560146101000a81548160ff02191690831515021790555050565b610460806100ad6000396000f3fe608060405234801561001057600080fd5b50600436106100575760003560e01c806314861b221461005c5780631680a5ed146100785780633072cf60146100965780638da5cb5b146100b4578063c4d66de8146100d2575b600080fd5b6100766004803603810190610071919061027c565b6100ee565b005b61008061016c565b60405161008d91906102b8565b60405180910390f35b61009e61018f565b6040516100ab91906102ee565b60405180910390f35b6100bc6101a2565b6040516100c9919061034a565b60405180910390f35b6100ec60048036038101906100e79190610391565b6101c8565b005b600560009054906101000a900473ffffffffffffffffffffffffffffffffffffffff1673ffffffffffffffffffffffffffffffffffffffff163373ffffffffffffffffffffffffffffffffffffffff161461014857600080fd5b80600060405161015790610415565b90815260200160405180910390208190555050565b60008060405161017b90610415565b908152602001604051809103902054905090565b600560149054906101000a900460ff1681565b600560009054906101000a900473ffffffffffffffffffffffffffffffffffffffff1681565b600560149054906101000a900460ff16156101e257600080fd5b80600560006101000a81548173ffffffffffffffffffffffffffffffffffffffff021916908373ffffffffffffffffffffffffffffffffffffffff1602179055506001600560146101000a81548160ff02191690831515021790555050565b600080fd5b6000819050919050565b61025981610246565b811461026457600080fd5b50565b60008135905061027681610250565b92915050565b60006020828403121561029257610291610241565b5b60006102a084828501610267565b91505092915050565b6102b281610246565b82525050565b60006020820190506102cd60008301846102a9565b92915050565b60008115159050919050565b6102e8816102d3565b82525050565b600060208201905061030360008301846102df565b92915050565b600073ffffffffffffffffffffffffffffffffffffffff82169050919050565b600061033482610309565b9050919050565b61034481610329565b82525050565b600060208201905061035f600083018461033b565b92915050565b61036e81610329565b811461037957600080fd5b50565b60008135905061038b81610365565b92915050565b6000602082840312156103a7576103a6610241565b5b60006103b58482850161037c565b91505092915050565b600081905092915050565b7f446f677300000000000000000000000000000000000000000000000000000000600082015250565b60006103ff6004836103be565b915061040a826103c9565b600482019050919050565b6000610420826103f2565b915081905091905056fea26469706673582212208557c6ce08d44dc31c957f7bc03cd5cd49b7d8d0d5f2257acc7edd6575f9ad1264736f6c634300080d0033",
  "immutableReferences": {},
  "source": "// SPDX-License-Identifier: MIT\npragma solidity ^0.8.0;\n\nimport \"./Storage.sol\";\n\n//This is our udpated Dogs contract (functional contract). The only diff we making is adding and onlyOwner modifer in the setNumberOfDogs contract.\n//The other things we need to do... make sure this contract is named DogsUpdated and go to the deploy migrations file to add this contract\n//We also need to create the script in the deploy... get an instance of the contract, call whatever functions we want, etc.\n//General rule - We can never have any other variables in our functional contracts apart from whats in Storage. It has to match up or it will cause errors.\ncontract DogsUpdated is Storage {\n\n  modifier onlyOwner() {\n    require(msg.sender == owner);\n    _;\n  }\n\n  //this calls initialize function upon deployment. Initalize can only be called once because of require so can not be called again.\n  constructor() {\n    initialize(msg.sender);\n  }\n\n  //initalized is bool in our storage. Here we require it hasn't been initialized yet to ensure this can only be run once.\n  function initialize(address _owner) public {\n    require(!_initialized);\n    owner = _owner;\n    _initialized = true;\n  }\n\n  function getNumberOfDogs() public view returns(uint256) {\n    return _uintStorage[\"Dogs\"];\n  }\n\n  function setNumberOfDogs(uint256 toSet) public onlyOwner {\n    _uintStorage[\"Dogs\"] = toSet;\n  }\n}\n",
  "sourcePath": "/Users/josephdeangeloi/Documents/Github/ProxyContract/contracts/DogsUpdated.sol",
  "compiler": {
    "name": "solc",
    "version": "0.8.13+commit.abaa5c0e.Emscripten.clang"
  },
  "schemaVersion": "3.4.6",
  "updatedAt": "2022-05-14T13:08:01.374Z",
  "networkType": "ethereum",
  "devdoc": {
    "kind": "dev",
    "methods": {},
    "version": 1
  },
  "userdoc": {
    "kind": "user",
    "methods": {},
    "version": 1
  }
}