{
  "contractName": "Proxy",
  "abi": [
    {
      "inputs": [
        {
          "internalType": "address",
          "name": "_currentAddress",
          "type": "address"
        }
      ],
      "stateMutability": "nonpayable",
      "type": "constructor"
    },
    {
      "stateMutability": "payable",
      "type": "fallback",
      "payable": true
    },
    {
      "inputs": [],
      "name": "_initialized",
      "outputs": [
        {
          "internalType": "bool",
          "name": "",
          "type": "bool"
        }
      ],
      "stateMutability": "view",
      "type": "function",
      "constant": true
    },
    {
      "inputs": [],
      "name": "owner",
      "outputs": [
        {
          "internalType": "address",
          "name": "",
          "type": "address"
        }
      ],
      "stateMutability": "view",
      "type": "function",
      "constant": true
    },
    {
      "inputs": [
        {
          "internalType": "address",
          "name": "_newAddress",
          "type": "address"
        }
      ],
      "name": "upgrade",
      "outputs": [],
      "stateMutability": "nonpayable",
      "type": "function"
    }
  ],
  "bytecode": "0x608060405234801561001057600080fd5b506040516104ff3803806104ff8339818101604052810190610032919061011d565b33600560006101000a81548173ffffffffffffffffffffffffffffffffffffffff021916908373ffffffffffffffffffffffffffffffffffffffff16021790555080600660006101000a81548173ffffffffffffffffffffffffffffffffffffffff021916908373ffffffffffffffffffffffffffffffffffffffff1602179055505061014a565b600080fd5b600073ffffffffffffffffffffffffffffffffffffffff82169050919050565b60006100ea826100bf565b9050919050565b6100fa816100df565b811461010557600080fd5b50565b600081519050610117816100f1565b92915050565b600060208284031215610133576101326100ba565b5b600061014184828501610108565b91505092915050565b6103a6806101596000396000f3fe6080604052600436106100385760003560e01c80630900f0101461012a5780633072cf60146101535780638da5cb5b1461017e57610039565b5b6000600660009054906101000a900473ffffffffffffffffffffffffffffffffffffffff169050600073ffffffffffffffffffffffffffffffffffffffff16600660009054906101000a900473ffffffffffffffffffffffffffffffffffffffff1673ffffffffffffffffffffffffffffffffffffffff16036100bb57600080fd5b600080368080601f016020809104026020016040519081016040528093929190818152602001838380828437600081840152601f19601f820116905080830192505050505050509050600080825160208401855af43d604051816000823e8260008114610126578282f35b8282fd5b34801561013657600080fd5b50610151600480360381019061014c91906102e3565b6101a9565b005b34801561015f57600080fd5b50610168610247565b604051610175919061032b565b60405180910390f35b34801561018a57600080fd5b5061019361025a565b6040516101a09190610355565b60405180910390f35b600560009054906101000a900473ffffffffffffffffffffffffffffffffffffffff1673ffffffffffffffffffffffffffffffffffffffff163373ffffffffffffffffffffffffffffffffffffffff161461020357600080fd5b80600660006101000a81548173ffffffffffffffffffffffffffffffffffffffff021916908373ffffffffffffffffffffffffffffffffffffffff16021790555050565b600560149054906101000a900460ff1681565b600560009054906101000a900473ffffffffffffffffffffffffffffffffffffffff1681565b600080fd5b600073ffffffffffffffffffffffffffffffffffffffff82169050919050565b60006102b082610285565b9050919050565b6102c0816102a5565b81146102cb57600080fd5b50565b6000813590506102dd816102b7565b92915050565b6000602082840312156102f9576102f8610280565b5b6000610307848285016102ce565b91505092915050565b60008115159050919050565b61032581610310565b82525050565b6000602082019050610340600083018461031c565b92915050565b61034f816102a5565b82525050565b600060208201905061036a6000830184610346565b9291505056fea2646970667358221220d397141db0a661181a8568f95f63419519275377248ec18661aef9671a16788764736f6c634300080d0033",
  "immutableReferences": {},
  "source": "// SPDX-License-Identifier: MIT\npragma solidity ^0.8.0;\n\nimport \"./Storage.sol\";\n\n//Remember we can add more functions to the proxy here but ALL the vars that are in storage must be here\n\ncontract Proxy is Storage {\n\n  //Proxy always need to take in the functional contract address, so we need a stat var for it and set it in constructor\n  address currentAddress;\n\n  constructor(address _currentAddress) {\n    owner = msg.sender;\n    currentAddress = _currentAddress;\n  }\n\n  //We need the upgrade function\n  function upgrade(address _newAddress) public {\n    require(msg.sender == owner);\n    currentAddress = _newAddress;\n  }\n\n  //Fallback function. This is how we can redirect everything from our Proxy here to the functional contract. Redirects to currentAddress\n  //If a user calls a function that is not in the contract it triggers fallback which is set up to call functional (Dogs) contract\n  fallback() payable external {\n    address implementation = currentAddress;\n    require(currentAddress != address(0));\n    //msg.data is all the information about the function call that we are transmitting. It contains all the parameters that we are sending to the function\n    bytes memory data = msg.data;\n\n    //add and delegate call are part of assembly functions. Add (data, 0x20) helps us translate the delegatecall to somethign we can read\n    //assembly allows us to send the function call forward to where it needs to go and returns the data to the user including if its successful/unsuccessful\n    assembly {\n      let result := delegatecall(gas(), implementation, add(data, 0x20), mload(data), 0, 0)\n      let size := returndatasize()\n      let ptr := mload(0x40)\n      returndatacopy(ptr, 0, size)\n      //result is our function call. So here we say if it is 0 the call was unsuccessful and if its 1 (default) its successful\n      switch result\n      case 0 {revert(ptr, size)} //this is revert if the call fails\n      default {return(ptr, size)} //defaul is if call is succesful, we want to retrn ptr and size\n    }\n  }\n}\n",
  "sourcePath": "/Users/josephdeangeloi/Documents/Github/ProxyContract/contracts/Proxy.sol",
  "compiler": {
    "name": "solc",
    "version": "0.8.13+commit.abaa5c0e.Emscripten.clang"
  },
  "schemaVersion": "3.4.6",
  "updatedAt": "2022-05-14T13:08:01.376Z",
  "networkType": "ethereum",
  "devdoc": {
    "kind": "dev",
    "methods": {},
    "version": 1
  },
  "userdoc": {
    "kind": "user",
    "methods": {},
    "version": 1
  }
}