{
  "contractName": "Storage",
  "abi": [
    {
      "inputs": [],
      "name": "_initialized",
      "outputs": [
        {
          "internalType": "bool",
          "name": "",
          "type": "bool"
        }
      ],
      "stateMutability": "view",
      "type": "function"
    },
    {
      "inputs": [],
      "name": "owner",
      "outputs": [
        {
          "internalType": "address",
          "name": "",
          "type": "address"
        }
      ],
      "stateMutability": "view",
      "type": "function"
    }
  ],
  "bytecode": "0x608060405234801561001057600080fd5b50610178806100206000396000f3fe608060405234801561001057600080fd5b50600436106100365760003560e01c80633072cf601461003b5780638da5cb5b14610059575b600080fd5b610043610077565b60405161005091906100cb565b60405180910390f35b61006161008a565b60405161006e9190610127565b60405180910390f35b600560149054906101000a900460ff1681565b600560009054906101000a900473ffffffffffffffffffffffffffffffffffffffff1681565b60008115159050919050565b6100c5816100b0565b82525050565b60006020820190506100e060008301846100bc565b92915050565b600073ffffffffffffffffffffffffffffffffffffffff82169050919050565b6000610111826100e6565b9050919050565b61012181610106565b82525050565b600060208201905061013c6000830184610118565b9291505056fea2646970667358221220edd0986a13e49e3d59dc3873acb35c87f40927195b7d3c6bfa8a4ce21cf09eaf64736f6c634300080d0033",
  "immutableReferences": {},
  "source": "// SPDX-License-Identifier: MIT\npragma solidity ^0.8.0;\n\n//the idea in this contract is to create genric storage mappings that can each be used multiple times by our functional contract\n//for ex. for the _uintStorage we can create... uintStorage[\"Number\"] = 10, or uintStorage\"[nrOfCats\"] = 5, uintStorage[\"Version\"] = 100, and so on.\ncontract Storage {\n  mapping(string => uint256) _uintStorage;\n  mapping(string => address) _addressStorage;\n  mapping(string => bool) _boolStorage;\n  mapping(string => string) _strStorage;\n  mapping(string => bytes4) _bytesStorage;\n  address public owner;\n  bool public _initialized;\n\n}\n",
  "sourcePath": "/Users/josephdeangeloi/Documents/Github/ProxyContract/contracts/Storage.sol",
  "compiler": {
    "name": "solc",
    "version": "0.8.13+commit.abaa5c0e.Emscripten.clang"
  },
  "schemaVersion": "3.4.6",
  "updatedAt": "2022-05-14T13:07:59.793Z",
  "devdoc": {
    "kind": "dev",
    "methods": {},
    "version": 1
  },
  "userdoc": {
    "kind": "user",
    "methods": {},
    "version": 1
  }
}